:020000040800F2
:1000000000140020AD020008B5020008B702000885
:10001000B9020008BB020008BD0200080000000091
:10002000000000000000000000000000BF02000807
:10003000C102000800000000C30200084D6800086B
:10004000C7020008C7020008C7020008FF6A0008CC
:10005000C7020008C7020008C7020008C70200085C
:10006000C7020008C7020008C7020008C70200084C
:10007000C7020008C7020008C7020008C70200083C
:10008000C7020008C7020008C7020008C70200082C
:10009000C7020008C7020008C7020008C70200081C
:1000A000C7020008C7020008C7020008C70200080C
:1000B000C7020008C7020008C7020008C7020008FC
:1000C000C7020008C7020008C7020008C7020008EC
:1000D000C7020008C7020008C70200080D66000832
:1000E000C7020008E16A0008C7020008C70200084A
:1000F000C7020008C7020008C7020008C7020008BC
:10010000C7020008C7020008C7020008C7020008AB
:10011000C7020008C7020008C7020008C70200089B
:10012000C7020008C7020008C7020008C70200088B
:10013000C7020008C7020008C7020008C70200087B
:10014000C7020008C7020008C7020008C70200086B
:10015000C7020008C7020008C7020008C70200085B
:10016000C7020008C7020008C7020008C70200084B
:10017000C7020008C7020008C7020008C70200083B
:10018000C7020008C7020008C7020008C70200082B
:10019000C7020008C7020008C7020008C70200081B
:1001A000C7020008C7020008C702000800F002F8F2
:1001B00000F06CF80AA090E8000C82448344AAF195
:1001C0000107DA4501D100F061F8AFF2090EBAE893
:1001D0000F0013F0010F18BFFB1A43F0010318477B
:1001E00030E3000050E300000A444FF0000C10F828
:1001F000013B13F0070408BF10F8014B1D1108BFA5
:1002000010F8015B641E05D010F8016B641E01F844
:10021000016BF9D113F0080F1EBF10F8014BAD1C94
:100220000C1B09D16D1E58BF01F801CBFAD505E0B2
:1002300014F8016B01F8016B6D1EF9D59142D6D30C
:10024000704700000023002400250026103A28BF34
:1002500078C1FBD8520728BF30C148BF0B60704738
:1002600066290BF00582642908F03A840020704763
:100270001FB50BF0F8F908F06FFF04000020002113
:100280000AF0D2FBE0601FBD10B510BD09F068F8A0
:100290001146FFF7EDFF06F049F909F086F803B4BF
:1002A000FFF7F2FF03BC09F0C7F8000009488047D8
:1002B00009480047FEE7FEE7FEE7FEE7FEE7FEE748
:1002C000FEE7FEE7FEE7FEE704480549054A064B60
:1002D00070470000F7030008AD010008000E002081
:1002E0000014002000100020001000200CB5002099
:1002F000019000908148006840F480307F49086098
:1003000000BF7E48006800F4003000900198401C57
:100310000190009818B90198B0F5A04FF1D1774835
:10032000006810F4003F02D00120009001E000209E
:100330000090009801285DD170484030006840F07E
:1003400080506E49403108606D48006840F440407C
:100350006B490860694808300068684908310860DE
:100360000846006840F4004008600846006840F411
:10037000A05008606348091F0860081F006840F02B
:100380008070091F086000BF5C48006810F0007FA3
:10039000FAD05B48006840F480305949086000BFDB
:1003A0005748406810F4803FFAD05548006840F440
:1003B00000305349086000BF5148406810F4003FC6
:1003C000FAD040F20570504908604C480830006887
:1003D00020F003004949083108600846006840F0F1
:1003E0000200086000BF45480830006800F00C00BB
:1003F0000828F8D10CBD10B54448006840F47000DE
:10040000424908603D48006840F001003B490860EF
:1004100000203A4908310860384800683C490840E3
:10042000364908603B48091D0860081F006820F431
:100430008020091F0860002030490C310860FFF758
:1004400055FF4FF0006031498039086010BD70B52C
:1004500000200022022300240221284D08352D68A7
:1004600005F00C0020B1042806D0082834D107E09C
:10047000294D2A4E356033E0294D284E35602FE056
:100480001E4D2D1D2D68C5F380541C4D2D1D2D684E
:1004900005F03F0154B1224DB5FBF1F5174E361D65
:1004A0003668C6F3881605FB06F209E01A4DB5FB5F
:1004B000F1F5124E361D3668C6F3881605FB06F2B6
:1004C0000E4D2D1D2D68C5F301456D1C6B00B2FB53
:1004D000F3F5124E356003E00F4D104E356000BF4E
:1004E00000BF064D08352D68C5F303150D4E705D30
:1004F0000A4D2D68C540094E356070BD0038024078
:1005000000700040195A4007003C024088ED00E0AE
:10051000FFFFF6FE103000240024F400000000204D
:1005200000127A000400002033490143334A11606D
:10053000704770B5002100230F22C47824B32F4CDC
:10054000246804F4E064C4F5E064C4F30721C1F155
:100550000404E3B20A4144789C40E1B28478144038
:1005600021430C07210E264C05786155047804F0D0
:100570001F050124AC4005786D114FF0E02606EB15
:100580008505C5F8004109E0047804F01F04012541
:10059000A5401C4C0678761144F8265070BD1A4AC6
:1005A0000A400243154B1B1F1A60704739B1134AAA
:1005B000121D12680243114B1B1D1A6006E00F4A00
:1005C000121D126882430D4B1B1D1A6070470428D0
:1005D00008D14FF0E021096941F004014FF0E02219
:1005E000116107E04FF0E021096921F004014FF0AB
:1005F000E0221161704700000000FA050CED00E0F8
:1006000000E400E080E100E080FFFF1F10B5012161
:10061000C80501F0B9FD00214FF4000001F0B4FD60
:1006200010BD70B50021002200230024E14D2D688B
:10063000E14E3540DF4E356035462D68066835435E
:10064000DC4E356035466D6B25F007057563354624
:100650006D6B46683543D74E7563456835B9C568D7
:100660002902058A2A04057D2B0621E04568012D13
:1006700005D1C5682902058A2A04002318E04568C7
:10068000022D05D1C56869010569EA0200230FE062
:100690004568032D06D1C56869010569AA02456947
:1006A000EB0305E0C568290105692A0245692B03AA
:1006B00041EA0205866835431D43BE4EB66B35439D
:1006C000BC4EB5638569F56335462D6C6FF30D053A
:1006D000356435462D6CC6693543B64E3564858C18
:1006E0002C0435466D6C05F04045756435466D6CDF
:1006F000066A26433543AF4E756470BD0021016024
:100700004160C1608160016141618161C1610162DB
:1007100041627047A748006840F00100A5490860A1
:100720007047A448006840F00400A2490860704780
:1007300030B1A049096841F002019E4A116005E00C
:100740009C49096821F002019A4A11607047F0B58E
:10075000002100220023002400250026DFF854C2D7
:100760000768CCF80C7067463F696FF30D07CCF84B
:10077000107067463F69D0F804C047EA0C07DFF8FD
:1007800034C2CCF810706746FF69DFF830C207EA60
:100790000C07DFF820C2CCF81C70C7683901076964
:1007A0003A02878A3B04077E3C066746D7F81CC09E
:1007B00087680F4317431F4327434CEA070C7D4FBD
:1007C000C7F81CC03F6A07F07F47DFF8E8C1CCF8E4
:1007D0002070076A3D02878C3E046746D7F820C028
:1007E000C7692F4337434CEA070C724FC7F820C044
:1007F000DFF8C0C1876ACCF82C70F0BD0021016021
:1008000041608160C160016141618161C1610162DA
:10081000416281627047F0B500210022002300246C
:1008200000250026DFF88CC10768CCF814706746F5
:10083000BF696FF30D07CCF818706746BF69D0F831
:1008400004C047EA0C07DFF86CC1CCF818706746A3
:100850007F6ADFF868C107EA0C07DFF858C1CCF8F7
:100860002470C768390107693A02878A3B04077E0A
:100870003C066746D7F824C087680F4317431F43D9
:1008800027434CEA070C4B4FC7F824C0BF6A07F058
:100890007F47DFF820C1CCF82870076A3D02878CBB
:1008A0003E046746D7F828C0C7692F4337434CEA50
:1008B000070C404FC7F828C0DFF8F8C0876ACCF8AB
:1008C0003070F0BD0021016041608160C160016154
:1008D00041618161C161016241628162704730B1F1
:1008E0003449C96941F02001324AD16105E03149FA
:1008F000C96921F020012F4AD161704730B12D49DB
:10090000496A41F020012B4A516205E02949496AB0
:1009100021F02001274A5162704710B579B1254B6B
:10092000DB6C4FF60174A343224CE36402022346BE
:10093000DB6C42F0010423431E4CE36405E01D4BD5
:10094000DB6C23F001031B4CE36410BD1949886480
:10095000704729B1174A12680243164B1A6004E027
:10096000144A12688243134B1A60704701460020F4
:10097000104A52680A4201D0012000E0002070476E
:100980000C4988607047014600200A0A094B5B68E1
:10099000134201D0012000E00020064B1B680B42EF
:1009A00002D008B1012000E000207047000A014990
:1009B0008860704700B00240FCE0FCFFC000FC0013
:1009C000002041490860091D0860091D0860091DD3
:1009D00008603E483C4914310860704700213A499C
:1009E0008279002A3AD00A46126803689A430B4675
:1009F0001A600A1D126803689A430B1D1A60027977
:100A000011440A6803681A430A602F4A08321268C0
:100A100003689A432C4B08331A601A1D1268036846
:100A20009A43294B0C331A604279102A0ED11A1FAF
:100A3000126803681A43244B08331A601A1D12689F
:100A400003681A43204B0C331A600DE01E494279AB
:100A500011440A6803681A430A6005E002791144E8
:100A60000A6803689A430A607047002101600171B7
:100A70000C214171002181717047134910310968BF
:100A80000143114A103211607047014600200E4A9E
:100A9000143212680A4201D0012000E000207047A1
:100AA000094914310860704701460020064A143293
:100AB00012680A4201D0012000E00020704702497C
:100AC0001431086070470000003C0140FFFF7F00C8
:100AD00030B943F2DB014FF0204242F8201005E02C
:100AE00043F2D2014FF0204242F820106FF07042E2
:100AF000411C4FF0204343F8212011461A4602EBD7
:100B00008002C2F80411704710B50021D0E901231A
:100B10001A43C3681A4303691A4343691A43836932
:100B20001A43C3691A43036A1A43436A1A43836A1E
:100B30001A43C36A1A43036B1A43436B1A434FF0B9
:100B40002044036844F823208268082A08D12346F9
:100B5000026853F8222042F04002036844F8232040
:100B6000426BB2F5801F19D10268BAB14FF0204232
:100B7000526822F470014FF020421268436B1A430E
:100B80004FF020431A601A46126842F480721A60CD
:100B9000826B128A521E41EA02525A60826B1268BC
:100BA000836B5B6842EA0312836B9B6842EA032211
:100BB000836B9B8942EA0342836B1B8A42EA03529E
:100BC000836B1B7D42EA0362836B9B691A43036854
:100BD0005B1C4FF0204444F82320826AB2F5804F1A
:100BE0001AD1C26B1268C36B5B6842EA0312C36B13
:100BF0009B6842EA0322C36B1B8A42EA0352C36B1F
:100C00001B7D42EA0362C36B9B691A43036804EBD2
:100C10008303C3F8042108E06FF070424FF02044D2
:100C2000036804EB8303C3F8042110BD00210160B5
:100C300002214160002181601021C1600021016119
:100C4000C16241618161C1614FF48051016249001B
:100C5000416200218162016341630F21826B116057
:100C6000826B5160FF21826B91600F21826BD1609A
:100C7000826B1161826B51610021826B91610F2146
:100C8000C26B1160C26B5160FF21C26B91600F217A
:100C9000C26BD160C26B1161C26B51610021C26B2A
:100CA0009161704751B14FF0204252F8202042F03C
:100CB00001024FF0204343F8202009E04FF020428A
:100CC00052F82020FC4B1A404FF0204343F82020DC
:100CD000704710280AD118214FF020421166402198
:100CE00051664FF0FC319166D16610E01821F34A4D
:100CF00011604FF040014FF02042C2F884104FF0D5
:100D0000FC31EF4A11604FF02042C2F88C1070475E
:100D100030B5002100220023446844F008048568AF
:100D20002C43C5682C4305692C43456944EA452496
:100D3000856944EA4531C4692468C5696D6844EA37
:100D40000524C5692D8944EA0544C5692D7B44EA1B
:100D50000562046A2468056A6D6844EA0524056A28
:100D60002D8944EA0544056A2D7B44EA056304683D
:100D7000102C05D14FF020442166A266E36607E0FF
:100D8000CE4C21604FF02044C4F88820CD4C236025
:100D900030BD1021016000214160102181600021DF
:100DA000C160016141618161FC21C2691160C26958
:100DB0005160C2699160C269D160026A1160026AC1
:100DC0005160026A9160026AD160704799B110283F
:100DD00008D14FF02042126E42F004024FF020433F
:100DE0001A661DE0B54A126842F004024FF0204333
:100DF000C3F8802014E0102809D14FF02042126E71
:100E0000AD4BDB1E1A404FF020431A6608E0AB4A98
:100E10001268AD4B02EA03024FF02043C3F8802072
:100E2000704799B1102808D14FF02042126E42F05D
:100E300040024FF020431A661DE0A04A126842F0BB
:100E400040024FF02043C3F8802014E0102809D15D
:100E50004FF02042126E9C4B3C3B1A404FF0204317
:100E60001A6608E0954A1268984B02EA03024FF0AE
:100E70002043C3F88020704701460020102903D189
:100E80004FF02042506F01E0914A106870471820DF
:100E9000904908604FF000004FF02041C1F8A400D5
:100EA0004FF0FC308C49086001F10401086001F149
:100EB000040108607047016841F01001426841EA8E
:100EC0004221826841EA4231824A1160C168096860
:100ED000C268526841EA0221C268128941EA0241AD
:100EE000C268127B41EA02617B4A116001690968AC
:100EF0000269526841EA02210269128941EA02410B
:100F00000269127B41EA0261744A11604169096811
:100F10004269526841EA02214269128941EA02416A
:100F20004269127B41EA02614FF02042C2F8B010E0
:100F300070470021016041608160FC21C26811603E
:100F4000C2685160C2689160C268D1600269116074
:100F500002695160026991600269D1604269116061
:100F600042695160426991604269D160704740B105
:100F70005849096841F004014FF02042C2F8A0101E
:100F800008E054490968504A01EA02014FF0204242
:100F9000C2F8A01070474FF434714A0602EB800289
:100FA000C2F840116FF070424C499C3141F820204A
:100FB00000214B4A11604FF02042C2F85411494AB7
:100FC0001160704770B50021002200230024D0E991
:100FD00001563543C668354306693543466935438E
:100FE00086693543C6693543066A3543466A45EA2C
:100FF000060105683DB94FF02046056806EB8505FA
:10100000C5F840110EE0D0E907563543466A45EA77
:101010000603354D2B604FF02046056806EB85052D
:10102000C5F84011056835BB856A2D686D1E866A56
:101030007668761E45EA0616856AAD686D1E46EA34
:101040000526856AED686D1E46EA0536856A2D8A95
:101050006D1E46EA0546856AAD8A6D1E46EA05564E
:10106000856A2D7E6D1E46EA05621D4D083D0668A7
:1010700045F826201FE0856A2D686D1E866A766811
:10108000761E45EA0616856AAD686D1E46EA052697
:10109000856A2D8A6D1E46EA0542856AED686D1ED9
:1010A0002E03856AAD8A6D1E46EA05540F4D2C60ED
:1010B000066845F8262070BDFEFF0F00800000A0E6
:1010C000880000A08C0000A0FBFF0F00BFFF0F00F6
:1010D000940000A0A00000A0A80000A0AC0000A008
:1010E000500100A0580100A0400100A0480100A04C
:1010F00000210160416081601021C16040210161D7
:1011000080214161890081610021C16101624162E8
:101110001021826A1160826A5160826A9160826ADB
:10112000D160826A1161826A5161826A91617047FD
:101130000021D0E900231A4383685B1E42EA431270
:10114000C36842EA4321A14A11607047014600206A
:1011500021B99F4A126802F0060005E09C4A126815
:1011600002F018024FEA920070479A49096841EA72
:1011700040014FF02042C2F854117047934909686A
:1011800041EA40114FF02042C2F85011704771B14E
:101190004FF0204202EB8002D2F8402142F400726C
:1011A0004FF0204303EB8003C3F840210EE04FF0E3
:1011B000204202EB8002D2F8402147F6FF531A404A
:1011C0004FF0204303EB8003C3F84021704710B574
:1011D00052B3102807D14FF020435B6E0B434FF002
:1011E000204463664AE0B0F5807F08D17A4B1B68E3
:1011F00043EA01034FF02044C4F884303EE0B0F5E8
:10120000805F08D1754B1B6843EA01034FF020440F
:10121000C4F8A43032E06F4B1B6843EA01034FF07F
:101220002044C4F8543129E0102807D14FF020435E
:101230005B6E8B434FF0204463661FE0B0F5807F08
:1012400008D1654B1B6823EA01034FF02044C4F822
:10125000843013E0B0F5805F08D1604B1B6823EA4F
:1012600001034FF02044C4F8A43007E0594B1B6839
:1012700023EA01034FF02044C4F8543110BD10B5E7
:10128000024600200023102A03D14FF02044636E51
:101290000DE0B2F5807F02D14F4C236807E0B2F534
:1012A000805F02D14D4C236801E0494C236803EA7A
:1012B00001048C4201D0002000E0012010BD102864
:1012C00007D14FF02042526E8A434FF020435A66B6
:1012D0001FE0B0F5807F08D13F4A126822EA010280
:1012E0004FF02043C3F8842013E0B0F5805F08D1AD
:1012F0003A4A126822EA01024FF02043C3F8A420C0
:1013000007E0344A126822EA01024FF02043C3F892
:1013100054217047F0B50246002000230024002528
:101320000026102A03D14FF020477B6E11E0B2F562
:10133000807F02D1284F3B680BE0B2F5805F02D17D
:10134000264F3B6805E0234F3B684FF02047D7F816
:10135000584103EA01060AB1012A02D104F001054D
:1013600001E003EAD10515B10EB1012000E0002033
:10137000F0BD102808D14FF02042526E22EAD1026F
:101380004FF020435A661FE0B0F5807F08D1124A23
:10139000126822EAD1024FF02043C3F8842013E000
:1013A000B0F5805F08D10D4A126822EAD1024FF0F1
:1013B0002043C3F8A42007E0064A126842F0010265
:1013C0004FF02043C3F8542170470000500100A0A3
:1013D000580100A0540100A0840000A0A40000A0B7
:1013E00010B504469848844208D10121084600F00F
:1013F000CBFE0021012000F0C7FE76E09348844236
:1014000008D10121022000F0BFFE0021022000F0DF
:10141000BBFE6AE08E48844208D10121042000F01E
:10142000B3FE0021042000F0AFFE5EE08948844254
:1014300008D10121082000F0A7FE0021082000F0BB
:10144000A3FE52E08448844208D10121102000F01C
:101450009BFE0021102000F097FE46E07F4884426A
:1014600008D10121202000F08FFE0021202000F073
:101470008BFE3AE07A48844208D10121402000F0F6
:1014800083FE0021402000F07FFE2EE0754884425C
:1014900008D10121802000F077FE0021802000F09B
:1014A00073FE22E07048844208D10121801500F0CB
:1014B0006BFE0021A01500F067FE16E06B48844229
:1014C00008D10121401500F05FFE0021601500F0F9
:1014D0005BFE0AE06648844207D10121001500F056
:1014E00053FE0021201500F04FFE10BDF0B50A4656
:1014F00000210023002400BF3DE0012505FA01F38F
:10150000156805EA03049C4234D105684F000326A0
:10151000BE40B543056015794E00B54006683543B9
:1015200005601579012D02D01579022D16D1856837
:101530004F000326BE40B543856055794E00B54047
:10154000866835438560456801268E40B543456011
:10155000456896798E40B6B235434560C5684F0000
:101560000326BE40B543C560D5794E00B540C66878
:101570003543C560491C1029BFD3F0BD4FF6FF713C
:1015800001600021017141718171C171704708B51D
:101590004FF480320092009A0A430092009AC2618E
:1015A000C161009AC261C2690092C269009208BD1D
:1015B0000246002013690B4201D0012000E0002008
:1015C00070470146086980B270470246002053699F
:1015D0000B4201D0012000E000207047014648691D
:1015E00080B2704701837047418370470AB101831D
:1015F00000E0418370474161704742694A4042615F
:101600007047F0B5002300244D07ED0E02FA05F3F4
:10161000CE1000F1200555F826504E07F70E0F2684
:10162000BE40B543CF1000F1200646F82750CE103B
:1016300000F1200555F8265045EA0304CE1000F1CC
:10164000200545F82640F0BD00000240000402409D
:1016500000080240000C024000100240001402404A
:1016600000180240001C02400020024000240240FA
:101670000028024010B50121880600F0C9FD0021B4
:101680004FF0806000F0C4FD10BDF0B500210022D5
:101690000023002400250026FE4F3F68DFF8F8C332
:1016A00007EA0C07DFF8ECC3CCF80070078A3904AE
:1016B00067463F68D0F814C04CEA010C47EA0C07B3
:1016C000DFF8D0C3CCF800700CF104073F68DFF8F6
:1016D000C8C307EA0C07DFF8BCC30CF1040CCCF854
:1016E0000070078B3A0467463F68D0F81CC04CEA8C
:1016F000020C47EA0C07DFF89CC30CF1040CCCF891
:1017000000700CF104073F68DFF88CC307EA0C0790
:10171000DFF880C30CF1080CCCF80070078C3B0498
:1017200067463F68D0F824C04CEA030C47EA0C0730
:10173000DFF860C30CF1080CCCF800700CF1040762
:101740003F68DFF854C307EA0C07DFF848C30CF121
:101750000C0CCCF80070078D3C046746D7F800C02D
:10176000C76A27434CEA070CCA4F0C37C7F800C0BA
:101770003F1D3F68DFF824C307EA0C07DFF814C3F6
:101780000CF1100CCCF80070D0E9007C47EA0C0793
:10179000D0F808C047EA0C07D0F80CC047EA0C079D
:1017A000DFF8F0C20CF1100CDCF800C047EA0C07BF
:1017B000DFF8E0C20CF1100CCCF80070476B3D0272
:1017C000078E3E04B34F24373F6807F07F47DFF8AA
:1017D000C4C20CF1240CCCF8007046EA0507D0F81E
:1017E00038C047EA0C07DFF8ACC20CF1240CDCF877
:1017F00000C047EA0C07DFF89CC20CF1240CCCF8BF
:101800000070F0BD0021016041608160C160016134
:1018100041618161C161016241628162C1620163B2
:1018200041638163704740B19A491031096841F0C2
:101830000101984A1032116007E096491031096899
:1018400021F00101934A10321160704740B1914973
:101850001031096841F480318E4A1032116007E07E
:101860008C491031096821F480318A4A10321160A4
:1018700070470EB5874910310968884A1140854A7A
:101880001032116011460968C1F30211009111462E
:101890000968C1F30221019111460968C1F30231BF
:1018A00002919DE80E0080E80E000EBD022101604D
:1018B00041608160704777493831086070477549E9
:1018C0001C31086070472DE9F041002400250026F6
:1018D000002200270023B1F804C04FEA0C44D0F8DE
:1018E00004C00CF4704CC0F804C0D1F800C04CEA3D
:1018F000040CC0F804C0B1F80CC04FEA0C45D0F895
:1019000008C00CF4704CC0F808C0D1F808C04CEA0C
:10191000050CC0F808C0D0F810C02CF0070CC0F8B7
:1019200010C0D1F810C0C0F810C0D1F81CC04FEAE8
:101930000C26B1F820C04FEA0C4291F824C04FEABF
:101940000C67D0F818C09C46C0F818C0D1F818C071
:101950004CEA060C4CEA020C4CEA070CC0F818C022
:10196000D0F814C02CF0FF0CC0F814C0D1F814C08B
:10197000C0F814C0D0F81CC040F207782CEA080C5C
:10198000C0F81CC0D1E90AC84CEA080CC0F81CC059
:10199000D0F828C09C46C0F828C0D1F830C0C0F8A4
:1019A00028C0B1F838C04FEA0C43D0F82CC00CF076
:1019B000E02CC0F82CC0D1F834C04CEA030CC0F8BD
:1019C0002CC0D0F830C06FF30A0CC0F830C0D1F88A
:1019D0003CC0C0F830C0BDE8F0810021016041602A
:1019E0008160C1600161FF21416100218161C161AC
:1019F000016241624FF4C06181620721C16200212E
:101A0000016341638163C163704721B1026842F0A1
:101A10000102026003E0026822F0010202607047E6
:101A20000CB51C493C31096800211A4A3C3211604E
:101A300011460968090C00911146096889B20191A3
:101A4000DDE90012C0E900120CBD00210160416017
:101A5000704701460F4A403212680A4201D0012005
:101A600000E00020704770B500230024C2B1056873
:101A700045F0020505604D682B020D892C04C568F0
:101A800005F07F45C560C6680D681D4325432E439C
:101A9000C66009E00868014000F800F08F88FE0F7A
:101AA000056825F0020505600125934E356070BD7F
:101AB0000021016041608160704721B1026842F0FD
:101AC0001002026003E0026822F0100202600122AC
:101AD000894B1A60704730B50022002300248D68BE
:101AE0002A028D892B040D782C064D682543154359
:101AF0001D43056430BD0021016041608160C1600B
:101B000070472DE9F0410B461446D0F8048008F4E4
:101B10007048C0F80480D0F8088008F47048C0F815
:101B20000880DFF8D481A8F11808D8F800104FF029
:101B3000010808EB114808EB03051FFA81F808F1CA
:101B4000010808EB0406016909B904220EE0012925
:101B500001D103220AE0042905D0022903D0032978
:101B600001D0072901D1022200E00122C16AC1F39C
:101B70000C08A8F10308B8FBF2F8A844A8F1010C7E
:101B8000016BC1F30A08B044A8F1010745EA0C480B
:101B9000C0F8048046EA0748C0F80880BDE8F08134
:101BA00041617047816270472DE9F0430B4614464E
:101BB000016909B904220EE0012901D103220AE0DA
:101BC000042905D0022903D0032901D0072901D116
:101BD000022200E001224168C1F30C0503EB050875
:101BE000A8F101078168C1F30C0604EB0608A8F10F
:101BF000010C45EA0748C0F8048046EA0C48C0F8E2
:101C0000088003FB02F808F1030803FB02F948EA25
:101C10000948C0F82C800463BDE8F08330B5034662
:101C2000186908B904220EE0012801D103220AE054
:101C3000042805D0022803D0032801D0072801D1A9
:101C4000022200E00122DC6A200CB0FBF2F009B9AC
:101C500004220EE0012901D103220AE0042905D063
:101C6000022903D0032901D0072901D1022200E073
:101C7000012200FB02F4E41C00FB02F544EA0544E7
:101C8000DC62196130BD39B11B4A1032126802435F
:101C9000194B10331A6006E0174A1032126882435B
:101CA000154B10331A60704701460020124A143257
:101CB00012680A4201D0012000E0002070470E495E
:101CC000183108607047014600200B4A1432126830
:101CD0000A4201D0012000E00020074A10321268B9
:101CE0000A4202D008B1012000E0002070470249FA
:101CF000183108607047000024680140F648006809
:101D000040F00100F44908600020F3490831086000
:101D1000F1480068F1490840EF490860F048091DA2
:101D20000860F048EC4984310860ED481038091D1E
:101D30000860E948006820F48020E7490860002036
:101D4000E5490C310860E4498C3108607047002196
:101D5000E14A921C117011460870704710B5014697
:101D60000022002300204A11012A02D1DA4C236804
:101D700008E0022A03D1D84C7034236802E0D64C24
:101D80007434236801F01F02012494401C4201D0E6
:101D9000012000E0002010BD38B500200090002494
:101DA000002500BF3120FFF7D9FF05460098401CF1
:101DB00000900098B0F5A04F01D0002DF2D0312056
:101DC000FFF7CCFF08B1012400E00024204638BD15
:101DD00001460020C04A106820F0F80040EAC10027
:101DE00010607047C049086070470021BA4A7032DD
:101DF00011701170012802D004280AD104E00121D9
:101E0000B54A7032117005E00521B34A7032117085
:101E100000E000BF00BF7047B4490860704770B56C
:101E2000049C41EA82150126C6EB530645EA0645A5
:101E3000054345EA0465A84E361D356070BDAA49C4
:101E40000866704710B5830143EA016343EA0273F1
:101E5000A14C8434236010BDA3498866704710B537
:101E6000830143EA016343EA02739B4C8834236095
:101E700010BD9D49086770479B49C864704702467A
:101E80000020954B0833186820F0EC6042EA01030B
:101E90001843914B083318607047024600208E4B60
:101EA0000833186820F0784042EA010318438A4B4F
:101EB00008331860704701460020874A08321068CE
:101EC00020F0030008431060704783480830006822
:101ED00000F00C007047014600207F4A083210686D
:101EE00020F0F000084310607047014600207A4A55
:101EF0000832106820F4E050084310607047014633
:101F00000020754A0832106820F4604040EAC100A1
:101F100010607047F0B50021002200240225002641
:101F200002236D4F08373F6807F00C0121B10429E7
:101F300005D0082937D105E06D4F076036E06D4FB9
:101F4000076033E0644F3F1D3F68C7F38056624F20
:101F50003F1D3F6807F03F036EB1664FB7FBF3F7D5
:101F6000DFF874C10CF1040CDCF800C0CCF3881C61
:101F700007FB0CF40CE05E4FB7FBF3F7DFF858C13A
:101F80000CF1040CDCF800C0CCF3881C07FB0CF44B
:101F9000514F3F1D3F68C7F301477F1C7D00B4FBD5
:101FA000F5F7076002E0524F076000BF00BF4A4FDD
:101FB00008373F6807F0F00109094F4F7A5C07685E
:101FC000D7404760444F08373F6807F4E051890A1B
:101FD000494F7A5C4768D74087603F4F08373F6872
:101FE00007F46041490B444F7A5C4768D740C760AB
:101FF000F0BD002100F44072B2F5407F0AD1364AAC
:102000000832116821F4F8113C4A02401143324A67
:1020100008321160304A70321268C0F30B031A4361
:102020002D4B70331A60704730494439086070474F
:102030002E494039086070473149086070470146B1
:102040000020254A8C32106820F01F004A1E1043E1
:10205000214A8C3210607047014600201E4A8C32A3
:10206000106820F4F8504A1E40EA02201A4A8C32C6
:102070001060704701460020174A8C32106820F427
:10208000401008431060704701460020124A8C320D
:10209000106820F44000084310607047014600209B
:1020A0000D4A8C32106820F44030084310607047AD
:1020B00014490860704739B1074A30321268024348
:1020C000054B30331A6006E0034A3032126882430F
:1020D000014B30331A60704700380240FFFFF6EAC8
:1020E000103000240030002000004742800E47429C
:1020F0000024F40000127A0014000020FFFCFF0FFF
:102100005C014742E011474229B1894A1268024303
:10211000874B1A6004E0864A12688243844B1A6037
:10212000704739B1824A121D12680243804B1B1D51
:102130001A6006E07E4A121D126882437C4B1B1D0A
:102140001A60704739B17A4A0C3212680243784BF0
:102150000C331A6006E0764A0C3212688243744BE4
:102160000C331A60704739B1714A10321268024359
:102170006F4B10331A6006E06D4A103212688243CA
:102180006B4B10331A60704739B1694A243A1268B0
:102190000243674B243B1A6006E0654A243A126802
:1021A0008243634B243B1A60704739B1604A203A3E
:1021B000126802435E4B203B1A6006E05C4A203AFC
:1021C000126882435A4B203B1A60704739B1584A13
:1021D0001C3A12680243564B1C3B1A6006E0544AF4
:1021E0001C3A12688243524B1C3B1A60704739B14B
:1021F0004F4A143A126802434D4B143B1A6006E0F2
:102200004B4A143A12688243494B143B1A60704798
:1022100039B1474A103A12680243454B103B1A60E5
:1022200006E0434A103A12688243414B103B1A6061
:10223000704739B13E4A1C32126802433C4B1C3392
:102240001A6006E03A4A1C3212688243384B1C334B
:102250001A60704739B1364A203212680243344B53
:1022600020331A6006E0324A203212688243304B33
:1022700020331A60704739B12D4A24321268024364
:102280002B4B24331A6006E0294A24321268824319
:10229000274B24331A60704739B1254A2C32126813
:1022A0000243234B2C331A6006E0214A2C32126879
:1022B00082431F4B2C331A60704739B11C4A3032AD
:1022C000126802431A4B30331A6006E0184A303263
:1022D00012688243164B30331A60704739B1144A82
:1022E000273A12780243124B273B1A7006E0104A35
:1022F000273A127882430E4B273B1A7070470C48DE
:102300004030006840F080700949403108607047F3
:1023100001460020064A283A12680A4201D00120EC
:1023200000E000207047024926390870704700001D
:102330003438024010B50446F748844208D10121E0
:102340008014FFF765FF0021A014FFF761FF3CE058
:10235000F248844208D101210014FFF748FF002110
:102360002014FFF744FF30E0ED48844208D10121FA
:10237000C013FFF73CFF0021E013FFF738FF24E014
:10238000E848844208D101214014FFF741FF0021B1
:102390006014FFF73DFF18E0E348844209D10121B2
:1023A0000805FFF735FF00214FF48010FFF730FFDD
:1023B0000BE0DE48844208D101214805FFF728FFE1
:1023C00000214FF40010FFF723FF10BD10B50022CD
:1023D000028802F441520B884C8823438C882343A3
:1023E000CC8823430C8923434C8923438C89234382
:1023F000CC8923431A430280838B4FF2FF7423401E
:1024000083830B8A038210BD2DE9F04F0025022340
:102410000024012700220026944690469146B0F8F9
:102420001CA04FF2400B0AEA0B0AA0F81CA04FF0C8
:10243000020AA0F820A0858BD1F808A0BAF1020FFB
:1024400001D100BF6AE0B1F804A0BAF1000F01D1D8
:10245000012700E00227DFF8D8A2DAF800A01AF47A
:10246000000F09D0DFF8C8A2DAF800A02AF4000AA9
:10247000DFF8BCB2CBF800A0DFF8B4A20AF17C0A06
:10248000DAF800A0CAF38818DFF8A4A20AF17C0ADF
:10249000DAF800A0CAF30279DFF894A2AAF1040ADC
:1024A000DAF800A00AF03F0CDFF888A2BAFBFCFAC9
:1024B0000AFB08FABAFBF9F6B1F806A0BAF5007FF4
:1024C0000ED14FEA162A0AEB8A0A4FEA4A0AD1F8D5
:1024D00008B0BAFBFBFA0AF1050A1FFA8AF20FE00C
:1024E0004FEA471AB6FBFAFA0AEB8A0A4FEA4A0A97
:1024F000D1F808B0BAFBFBFA0AF1050A1FFA8AF212
:102500004FF00A0AB2FBFAF202F00104A2EB040A4D
:10251000CAF34F034FF6FF7A0AEA0424022B01DBC9
:10252000FF2B01DD02230024B1F806A04AEA040AC9
:102530004AEA030AA0F820A0B1F804A0B1F80CB050
:102540004AEA0B0AB1F802B04AEA0B0AB1F800B045
:102550004AEA0B0A4AF4006A4AEA05058583BDE89F
:10256000F08F0021018041808180C1800181418103
:102570008181C18107210182704700210180418052
:102580008180C1800221816000218181704721B159
:10259000028842F04002028004E002884FF6BF73D6
:1025A0001A400280704721B1828B42F4806282839C
:1025B00004E0828B4FF6FF331A4082837047028813
:1025C0004FF2FF731A40028002880A43028070476C
:1025D000B1F5804F04D1028842F48042028004E0C9
:1025E00002884BF6FF731A4002807047A1F57E42C5
:1025F000FF3A04D0028842F48072028004E002882C
:102600004FF6FF631A400280704721B1828842F082
:102610000402828004E082884FF6FB731A408280B5
:10262000704721B1828842F01002828004E08288E3
:102630004FF6EF731A408280704730B500220023B6
:10264000848B4FF240052C40848302240484828BC7
:102650000C88B4F5007F01D00C8814B94FF4807356
:1026600008E00C88B4F5407F03D00C88B4F5807F77
:1026700000D100238C888D892C434D882C431C432A
:1026800044F400642243828330BD01468889704748
:102690008181704721B1028842F40052028004E037
:1026A00002884DF6FF731A4002807047018841F49A
:1026B00080510180704702460020012901D0108B13
:1026C00000E0908A70470146088A70471AB18388F3
:1026D0000B43838002E083888B438380704730B54F
:1026E000002400230C110125A540ABB21AB1858846
:1026F0001D43858002E085889D43858030BD02466C
:10270000002013890B4201D0012000E00020704717
:10271000CA43028170470000003001400038004089
:10272000003C004000340140005001400054014092
:102730000838024000127A00F0B50246002000245A
:102740000023002501F00F070126BE40B4B20B1193
:1027500001269E40B3B2968806EA030516892642F2
:1027600002D00DB1012000E00020F0BD10B5002224
:1027700001F00F040123A3409AB2D343038110BD9B
:1027800010B50446FA48844208D101211020FFF711
:102790003FFD00211020FFF73BFD57E0F548844244
:1027A00009D101214804FFF722FD00214FF4003038
:1027B000FFF71DFD4AE0F048844209D10121880459
:1027C000FFF715FD00214FF48020FFF710FD3DE0DD
:1027D000EA48844209D10121C804FFF708FD00211D
:1027E0004FF40020FFF703FD30E0E548844209D1B3
:1027F00001210805FFF7FBFC00214FF48010FFF7D3
:10280000F6FC23E0DF48844208D101212020FFF7B5
:10281000FFFC00212020FFF7FBFC17E0DA48844290
:1028200009D101218807FFF7E2FC00214FF0804029
:10283000FFF7DDFC0AE0D548844207D101214005BD
:10284000FFF7D5FC00216005FFF7D1FC10BD2DE995
:10285000FF4705460E460024A14600BFA046B089AA
:1028600000B100BF2C8A24F44054F08804432C8229
:10287000AC8941F20C608443B08831890843718986
:1028800008430443AC81AC8A24F44074B089044307
:10289000AC826846FFF73EFBB548854202D0B94896
:1028A000854202D1DDF80C9001E0DDF80890A8899E
:1028B00010F4004F08D009EBC90000EB0910316893
:1028C0004900B0FBF1F707E009EBC90000EB091084
:1028D00031688900B0FBF1F76420B7FBF0F0040128
:1028E0002009642101FB1078A88910F4004F08D05A
:1028F000322000EBC800B0FBF1F000F00700044309
:1029000008E0322000EB08106421B0FBF1F000F089
:102910000F0004432C81BDE8FF874FF4165101607E
:1029200000218180C18001810C21418100218181B0
:10293000704710B502460020108A20F470600B88A2
:102940004C8823438C882343CC882343184310822C
:1029500010BD0021018041808180C180704721B17C
:10296000828942F40052828104E082894DF6FF732D
:102970001A4082817047028B02F47F420283028BED
:102980000A430283704721B1828942F40042828166
:1029900003E08289C2F30E028281704721B1828AEC
:1029A00042F40062828204E0828A4FF2FF731A408E
:1029B00082827047C1F3080282807047014688888E
:1029C000C0F308007047028A4FF6F0731A40028283
:1029D000028A0A430282704721B1828942F00202D0
:1029E000828104E082894FF6FD731A40828170472C
:1029F00082894FF2FF731A40828182890A43828161
:102A00007047028A4FF6DF731A400282028A0A4335
:102A10000282704721B1028A42F48042028204E0BD
:102A2000028A4BF6FF731A4002827047818941F097
:102A300001018181704721B1828A42F008028282BD
:102A400004E0828A4FF6F7731A4082827047028B45
:102A5000D2B20283028B42EA01220283704721B183
:102A6000828A42F02002828204E0828A4FF6DF737B
:102A70001A408282704721B1828A42F0100282821B
:102A800004E0828A4FF6EF731A4082827047828A8E
:102A90004FF6FB731A408282828A0A438282704711
:102AA00021B1828A42F00202828204E0828A4FF6D9
:102AB000FD731A40828270471AB1838A0B43838266
:102AC00002E0838A8B4383827047F0B5034600247B
:102AD000002600250020A1F510676A3F00D100BF45
:102AE0001846C1F3421401F01F06012707FA06F544
:102AF000012C01D10C3004E0022C01D1103000E097
:102B000014301AB107682F43076002E00768AF432B
:102B10000760F0BD02460020B1F5007F00D100BF84
:102B200013880B4201D0012000E00020704701F41F
:102B30000072B2F5007F00D100BFCA430280704727
:102B400070B502460024002300250020A1F5106680
:102B50006A3E00D100BFC1F3421501F01F030126F8
:102B600006FA03F3012D13D19689334017E00000D4
:102B7000001001400044004000480040004C00406C
:102B8000005000400014014000780040007C0040EC
:102B9000022D02D1168A334001E0968A33400C128E
:102BA000012606FA04F41688344013B10CB1012052
:102BB00000E0002070BD10B500220023A1F51064D4
:102BC0006A3C00D100BF0A1201249440A3B2DC4346
:102BD000048010BD08B50022009200200021CA2206
:102BE000F94B1A6053221A60F74A183A126822F019
:102BF000A002F54B183B1A6000BFF34A183A12685E
:102C000002F02001009A521C0092009AB2F5003F97
:102C100001D00029F1D0EC4A183A126812F0200FC6
:102C200001D0012000E00020FF22E74B1A6008BD20
:102C300008B50022009200200021E34A183A1268E9
:102C400012F0400F1CD1421EDF4B183B1A6000BF30
:102C5000DD4A183A126802F04001009A521C0092B4
:102C6000009AB2F5803F01D00029F1D0D64A183A37
:102C7000126812F0400F01D0012002E0002000E0B5
:102C8000012008BD38B50020009000240025CA208E
:102C9000CD49086053200860FFF7CAFF00B947E03C
:102CA0000020C9492439086042F20110091D08605A
:102CB000081D006800F00700091D086000BFC24839
:102CC0001838006800F004040098401C0090009838
:102CD000B0F5803F01D0002CF1D0BB481838006817
:102CE00010F0040F01D1002522E0B7481C3800681D
:102CF0000020B5491C3908604FF6FF70B249103901
:102D00000860B248091F08600020AF490C3908600C
:102D1000091D0860091D0860AB4918390860AA49F7
:102D20001C310860FFF756FF08B9002500E00125B7
:102D3000FF20A5490860284638BDA3481838006818
:102D400020F08000A04918390860704730B504466B
:102D50000025CA209C49086053200860FFF768FFDF
:102D600000B91DE098481C38006820F040009649E2
:102D70001C390860084600682168084392491C39DC
:102D8000086091491439A068086008460068A18865
:102D900040EA01408C4914390860FFF7CEFF012555
:102DA000FF2089490860284630BD002101607F214D
:102DB0004160FF218160704718B1FF21824A116094
:102DC00004E0CA21804A116053211160704730B578
:102DD00004460025CA207C49086053200860FFF79C
:102DE00027FF00B914E044B177481C38006840F070
:102DF000100075491C39086007E073481C380068EA
:102E000020F0100070491C390860FFF796FF01257B
:102E1000FF206D490860284630BDCA216A4A11600A
:102E20005321116040B168491C39096841F0200103
:102E3000654A1C3A116007E063491C39096801F0D2
:102E4000DF01614A1C3A1160FF215F4A116070473F
:102E50000146002204E0501CC2B2A1F10A00C1B236
:102E60000A29F8DA100741EA10607047014600BFEE
:102E7000080900EB8000420001F00F001044C0B2CE
:102E800070472DE9F04105460C460026002755B94C
:102E90004D481C38006810F0400F00D002E00020C0
:102EA000E07000BF0EE048481C38006810F0400F8A
:102EB00004D02078FFF7DAFF064602E00020E07039
:102EC00000BF00BF55B120780004617840EA0120BE
:102ED000A1780843E17840EA014611E02078FFF745
:102EE000B7FF4FEA00486078FFF7B2FF48EA0028D2
:102EF000A078FFF7ADFF48EA0008E07848EA00460E
:102F0000CA203149086053200860FFF791FE08B9D4
:102F100000270CE02E4830402B4924390860FFF789
:102F20000CFFFFF757FE08B9002700E00127FF203C
:102F3000254908603846BDE8F0810021C170017064
:102F400041708170704770B506460C4600251E48DA
:102F5000243800681E4900EA0105C5F305402070C9
:102F6000C5F30620607005F07F00A07005F48000B6
:102F7000000CE0705EB92078FFF778FF2070607871
:102F8000FFF774FF6070A078FFF770FFA07070BD4E
:102F900000200D49091D08680B4920390968704750
:102FA0002DE9F04105460C46002600274DB9607812
:102FB00000F01000102804D1607820F010000A30D2
:102FC00060703DB90FE0000024280040FF007F0042
:102FD0007F7F7F006078FFF749FF0646A078FFF704
:102FE00045FF064600BF55B1E0780004617840EA2D
:102FF0000120A1780843217840EA413611E0E078C9
:10300000FFF726FF4FEA00486078FFF721FF48EA04
:103010000028A078FFF71CFF48EA0008207848EA5B
:103020004036CA20FA49086053200860FFF700FEC6
:1030300008B900270CE0F7483040F549203908600E
:10304000FFF77BFEFFF7C6FD08B9002700E0012768
:10305000FF20EF4908603846BDE8F081012101708A
:10306000817041700021C170704770B506460C46F2
:103070000025E74820380068E64900EA0105280CE9
:10308000E070C5F30420607005F03F00A070C5F348
:10309000423020706EB9E078FFF7E8FEE0706078AB
:1030A000FFF7E4FE6070A078FFF7E0FEA0702078E4
:1030B000207070BD2DE9F04105460E4614460027EC
:1030C0006DB9D3481C38006810F0400F00D002E002
:1030D0000020E07000BFA06800B91AE019E0CC48F9
:1030E0001C38006810F0400F04D02078FFF7BEFEB7
:1030F000074602E00020E07000BFA06820B9207BF6
:10310000FFF7B4FE074604E0207BFFF7AFFE07465B
:1031100000BF95B120780004617840EA0120A178D1
:103120000843E17840EA0140217B40EA0160A16860
:103130000843616840EA01071BE02078FFF788FE3A
:103140004FEA00486078FFF783FE48EA0028A0783D
:10315000FFF77EFE48EA0008E07848EA0048207B56
:10316000FFF776FE48EA0060A1680843616840EA1C
:103170000107CA20A649086053200860B6F5807F81
:1031800003D1A3480838076002E0A148001F076088
:10319000FF209F490860BDE8F0810021C1700170E7
:1031A000417081708160012101730021416070478D
:1031B0002DE9F04106460F4614460025B7F5807FFD
:1031C00003D193480838056802E09148001F05685C
:1031D000C5F305402070C5F30620607005F07F0040
:1031E000A07005F48000000CE070C5F3056020734A
:1031F00005F08040A06005F0803060607EB92078E6
:10320000FFF734FE20706078FFF730FE6070A07822
:10321000FFF72CFEA070207BFFF728FE2073BDE88F
:10322000F08138B502460024009400230020CA240F
:10323000774D2C6053242C6041B1754C1C3C2468A4
:103240001443734D1C3D2C6001201EE0704C1C3C4F
:10325000246894436E4D1C3D2C6000BF6C4C183CA0
:10326000246804EA1223009C641C0094009CB4F5BA
:10327000803F01D0002BF1D0654C183C246814EA43
:10328000122F01D1002000E00120FF24604D2C60AE
:1032900038BD30B50023CA245D4D2C6053242C600A
:1032A00041EA0203B0F5807F03D1594C20342360FA
:1032B00002E0574C24342360FF24554D2C6030BD70
:1032C00001460020B1F5807F05D1514A20321268B5
:1032D000C2F30E0004E04E4A24321268C2F30E001C
:1032E0007047CA214A4A11605321116048491C396C
:1032F000096821F00701464A1C3A11601146096825
:1033000001431160FF21424A11607047CA21404ABF
:103310001160532111603E4910390860FF2111608E
:1033200070473B481038006880B2704718B50146B6
:103330000023009300220020CA23354C236053232E
:10334000236049B1324B1C3B1B6843F48063304C13
:103350001C3C236001201FE02D4B1C3B1B6823F409
:1033600080632B4C1C3C236000BF294B183B1B681F
:1033700003F00402009B5B1C0093009BB3F5803FAD
:1033800001D0002AF1D0224B183B1B6813F0040F28
:1033900001D1002000E00120FF231D4C236018BD57
:1033A000CA221B4B1A6053221A60194A1C3A12682F
:1033B00022F48022164B1C3B1A601A46126840EA1F
:1033C00001031A43124B1C3B1A60FF22104B1A6078
:1033D00070470F481C38006800F480207047CA22EC
:1033E0000B4B1A6053221A60094A1C3A126822F4E5
:1033F000E002074B1C3B1A601A46126840EA0103C0
:103400001A43034B1C3B1A60FF22014B1A607047A2
:10341000242800403FFFFF0070B504460D460026FB
:10342000CA20F649086053200860FFF701FC00B984
:1034300007E044EA0500F1490C390860FFF77DFC1C
:103440000126FF20ED490860304670BD30B50446C6
:103450000025CA20E949086053200860FFF7E8FB0F
:1034600000B914E044B1E5481C38006840F0800021
:10347000E2491C39086007E0E0481C38006820F089
:103480008000DE491C390860FFF757FC0125FF204A
:10349000DA490860284630BDCA21D84A1160532154
:1034A000116040B1D5491C39096841F40001D34A83
:1034B0001C3A116007E0D1491C39096821F4000168
:1034C000CE4A1C3A1160FF21CC4A11607047CA21D4
:1034D000CA4A116053211160C8491C39096821F496
:1034E0000021C64A1C3A1160114609680143116067
:1034F000FF21C24A1160704770B5034600200024C6
:10350000CA25BE4E356053253560BC4D183D2D682B
:1035100015F4803F0AD000E0641CB84D183D2D68BA
:1035200015F4803F02D0B4F5003FF5D1B34D183DFE
:103530002D6815F4803F07D143EA01051543AF4ECE
:1035400018363560012000E00020FF25AB4E3560C5
:1035500070BD10B50A460021A84B1C3B1B6840F605
:10356000080423EA04011AB140F40063194300E09F
:103570000143CA23A14C2360532323609F4B1C3B70
:103580001960FF23236010BD2DE9F04180460C46F1
:1035900015460026002799480C300068984900EA33
:1035A0000106964810300068964900EA0107C6F304
:1035B00005402070C6F30620607006F07F00A07002
:1035C00006F48000000CE0700020E870C7F30420CF
:1035D000687007F03F00A870C7F342302870B8F158
:1035E000000F17D12078FFF741FC20706078FFF7BB
:1035F0003DFC6070A078FFF739FCA0706878FFF799
:1036000035FC6870A878FFF731FCA8702878FFF7C0
:103610002DFC2870BDE8F0817848143000687047B0
:1036200041B9764A1C32126822EA4002734B1C33BD
:103630001A6007E0714A1C32126842EA40026F4B7E
:103640001C331A60704739B16C4A1C32126802434D
:103650006A4B1C331A6006E0684A1C3212688243C7
:10366000664B1C331A60704764491C31096821F4A9
:10367000C051624A1C321160114609680143116051
:1036800070475E491C31096821F4E0615B4A1C32D5
:1036900011601146096801431160704757491C3198
:1036A000096821F4C041554A1C321160114609686D
:1036B00001431160704740B150491C31096841F025
:1036C00080014E4A1C32116007E04C491C310968E8
:1036D00021F08001494A1C321160704740B14749CE
:1036E0001C31096821F40041444A1C32116007E092
:1036F00042491C31096841F40041404A1C321160C2
:10370000704708B5002200923C4A2C320092009A81
:1037100002EB80020092009A116008BD08B50146D4
:103720000020009035482C300090009800EB81007C
:1037300000900098006808BD30491C31096821F4E8
:1037400080312E4A1C321160114609680143116014
:1037500070472A491C31096821F40031274A1C327C
:1037600011601146096801431160704723491C31FB
:10377000096821F48021214A1C3211601146096830
:10378000014311607047F0B504460D46002700263E
:10379000CA201A4908605320086018481838006881
:1037A00010F0080F0AD000E0761C144818380068A2
:1037B00010F0080F02D0B6F5805FF5D10F48183829
:1037C000006810F0080F13D10C481C38006810F086
:1037D000100F0BD145EA0400084908310860FFF7D3
:1037E000F9F908B9002704E0012702E0002700E00A
:1037F0000027FF20014908603846F0BD242800401A
:103800007F7F7F003FFFFF00CA223E4B1A6053229A
:103810001A6091B13B4A1C3A126820F004031A4323
:10382000384B1C3B1A60374A1C32126800F0040304
:103830001A43344B1C331A6011E0324A1C3A1268A6
:1038400020F004039A432F4B1C3B1A602D4A1C3274
:10385000126800F004039A432A4B1C331A60FF22BB
:10386000284B1A60704710B5014600200022254BF6
:10387000183B1B6843F6777403EA04020A4201D03E
:10388000012000E0002010BD81B241F080011D4AFE
:10389000183A126802F0800262EA0101194A183AE5
:1038A0001160704730B50146002000220023154CFE
:1038B0001C34246804F00402124C1C3C24680C40A4
:1038C00002EAD13544EA05030E4C183C246804EAA8
:1038D000111223B11404240C01D0012000E00020B7
:1038E00030BD002101098AB242F08002054B183B2D
:1038F0001B6803F0800363EA0202024B183B1A6064
:10390000704700002428004010B501210807FEF789
:103910006EFC00214FF08050FEF769FC10BD2E496F
:1039200008627047014600202C4A106820F0E00031
:1039300008431060704728490861704728490860AB
:1039400070472849086070472349886370472249B7
:103950004862704710B502460020204B186820F0DE
:10396000030010431860204B1B6843F004031E4CF7
:103970002360012901D130BF00E020BF1A4B1B6832
:1039800023F00403184C236010BD1448006840F075
:103990000400124908600846006840F00200086010
:1039A0001148006840F004000F49086000BF00BFE4
:1039B00030BF704701460020084A52680A4201D0D1
:1039C000012000E0002070470449096841EA8001B5
:1039D000024A11607047000000000E420070004073
:1039E000A0000E42A4000E4210ED00E070B50446A7
:1039F0000D46E1B2FE48FEF7DDFF204670BD10B572
:103A00003221FC4805F0E9F80A21FB4805F0E5F809
:103A1000FA4800210160416001810020F8490860F6
:103A2000F8490860F8490860F84908603221F84808
:103A300005F0B1F80020F74908603221F64805F09A
:103A4000CCF80020F54908603221F54805F0C5F8AA
:103A50009FEDF40AF44880ED000A3221F34805F0A6
:103A60009AF80020F2490860F2490860F2490860BB
:103A7000F2490860F2490860F2490860F2490860BA
:103A800010BD10B5F148006805F066F884B2224612
:103A9000EE480168EE4802F068FEEE48006805F066
:103AA0005BF884B22246EB480168E94802F05DFE0B
:103AB000E948006805F050F884B22246E6480168FB
:103AC000E34802F052FEE548006805F045F884B28C
:103AD0002246E2480168DE4802F047FEE0480068FE
:103AE00005F03AF884B22246DD480168D84802F071
:103AF0003CFE012240F22771BD48FEF7E6FF64E07C
:103B0000D84802F002FE002859D1D64802F004FE3F
:103B1000D5490870084600781B282AD14FF6FF7057
:103B200003F08CFDD1480168002003F0D8FDC748A0
:103B3000006805F011F884B22246C4480168C44800
:103B400002F013FECA48006805F006F884B2224667
:103B5000C7480168BE4802F008FEBC48006804F08F
:103B6000FBFF84B22246B9480168B94802F0FDFD66
:103B70002CE0C0480168002003F0B1FDB3480068A4
:103B800004F0EAFF84B22246B0480168B04802F06F
:103B9000ECFDB948006804F0DFFF84B22246B64865
:103BA0000168AB4802F0E1FDA848006804F0D4FFCA
:103BB00084B22246A5480168A54802F0D6FD01223C
:103BC00040F227718A48FEF780FF99E700BF10BDD9
:103BD00010B52DED0C8BFFF712FF9C48006804F028
:103BE000BBFF84B2224699480168994802F0BDFDA6
:103BF000A248006804F0B0FF84B222469F480168E2
:103C0000934802F0B2FD9E48006804F0A5FF84B21C
:103C100022469B4801688E4802F0A7FD012240F22F
:103C200027717348FEF751FF31E0012240F22771FE
:103C30006F48FEF74AFF8B4802F067FD38BB8948A2
:103C400002F06AFD8849087008460078392819DCB6
:103C500008460078302815DB084600786649744A23
:103C60001268885480480178794802F03EFD704817
:103C70000068401C6E490860012240F227715C48D0
:103C8000FEF723FF784800780D2800D100E0CCE74C
:103C900000BF012240F227715548FEF716FF6B481E
:103CA000006804F059FF84B22246684801686848F9
:103CB00002F05BFD7348006804F04EFF84B22246B8
:103CC00070480168624802F050FD012240F22771FD
:103CD0004748FEF7FAFE31E0012240F227714448DE
:103CE000FEF7F3FE5F4802F010FD38BB5D4802F0BE
:103CF00013FD5D49087008460078392819DC08462C
:103D00000078302815DB084601783C484B4A126899
:103D10008154554801784E4802F0E7FC4748006856
:103D2000401C46490860012240F227713048FEF7E6
:103D3000CCFE4D4800780D2800D100E0CCE700BF54
:103D40004248006804F008FF84B222463F480168F8
:103D50003F4802F00AFD4C48006804F0FDFE84B2C2
:103D60002246494801683A4802F0FFFC012240F22D
:103D700027711F48FEF7A9FE00202F490860ACE01C
:103D80001D4804F0E9FE2C490968401A401E2949E3
:103D900008600846006807F0ACF841EC100BB0EE84
:103DA00040DAF0EE60DAB0EE4D1AF0EE6D1A9FEDEB
:103DB000370B05F01DFFB0EE40BAF0EE60BA0E49C9
:103DC0001D4A1268895CA1F1300007F092F841ECBD
:103DD000100BB0EE40CAF0EE60CA53EC1B2B51EC56
:103DE0001C0B07F0D9F841EC100BB0EE409A51E0F3
:103DF000004800408C010020780100208201002052
:103E0000C8000020CC000020D0000020D4000020FA
:103E1000BE010020D8000020F0010020DC000020BE
:103E20005402002000000000E000002022020020D8
:103E3000E4000020E8000020EC000020F00000205A
:103E4000F4000020F8000020FC0000203C000020CE
:103E50009003002044000020480000204C00002077
:103E60005000002092040020400000203400002078
:103E70002C000020380000203000002058000020D6
:103E80006C00002070000020740000200000000082
:103E900000002440F0EE609AFE48006807F029F820
:103EA00041EC100BB0EE40AAF0EE60AA53EC192BD7
:103EB00051EC1A0B06F0DAFD41EC100BB0EE408A23
:103EC000F0EE608A51EC180B06F0E4FFF14908604F
:103ED000F1480068401CF0490860F04804F03CFEDE
:103EE000ED49096888423FF64BAF0020EC49086075
:103EF00059E0EC4804F030FEE9490968401A401ED8
:103F0000E94908600846006806F0F3FF41EC100B31
:103F1000B0EE40DAF0EE60DAB0EE4D1AF0EE6D1A67
:103F20001FED260B05F064FEB0EE40BAF0EE60BA6D
:103F3000DC49DB4A1268895CA1F1300006F0D9FF48
:103F400041EC100BB0EE40CAF0EE60CA53EC1B2BF4
:103F500051EC1C0B07F020F841EC100BB0EE409A2E
:103F6000F0EE609AD148006806F0C3FF41EC100BF8
:103F7000B0EE40AAF0EE60AA53EC192B51EC1A0BEC
:103F800006F074FD41EC100BB0EE408AF0EE608A52
:103F900051EC180B06F07EFFC4490860C048006869
:103FA000401CBF490860BF4804F0D6FDBC49096801
:103FB00088429ED8B7480068BC4909680844BC4993
:103FC00008600846BBA10268BB4804F041FDBA483E
:103FD00004F0C2FD84B22246B749B84802F0C5FBDE
:103FE000B748006804F0B8FD84B22246B4480168BE
:103FF000B24802F0BAFBB348006804F0ADFD84B2E9
:104000002246B0480168AD4802F0AFFB012240F201
:104010002771AD48FEF759FD81E0AC4802F075FB11
:10402000002876D1A94802F077FBA9490870084614
:1040300000781B286DD14FF6FF7003F0FFFAA548FA
:104040000168002003F04BFB9D48006804F084FDEC
:1040500084B222469A480168984802F086FB9E483E
:10406000006804F079FD84B222469B4801689348B9
:1040700002F07BFB9948006804F06EFD84B2224692
:10408000964801688D4802F070FB9548006804F07E
:1040900063FD84B2224692480168884802F065FBBD
:1040A0009048006804F058FD84B222468D480168AB
:1040B000824802F05AFB8C48006804F04DFD84B23F
:1040C0002246894801687D4802F04FFB8748006816
:1040D00004F042FD84B2224684480168774802F029
:1040E00044FB7848006804F037FD84B222467548E6
:1040F0000168724802F039FB7148006804F02CFD39
:1041000084B222466E4801686C4802F02EFB07E03C
:10411000FFE7012240F227716B48FEF7D6FC7CE7EF
:1041200000BFBDEC0C8B10BD10B52DED0C8BFFF757
:1041300066FC6348006804F00FFD84B222466048C4
:1041400001685E4802F011FB6548006804F004FD58
:1041500084B2224662480168584802F006FB64486F
:10416000006804F0F9FC84B22246614801685348B3
:1041700002F0FBFA012240F227715348FEF7A5FC3A
:1041800031E0012240F227714F48FEF79EFC4F4874
:1041900002F0BBFA38BB4D4802F0BEFA4C49087039
:1041A00008460078392819DC08460078302815DBE5
:1041B0000846007839494F4A1268885444480178C3
:1041C0003E4802F092FA4B480068401C494908609A
:1041D000012240F227713C48FEF777FC3C4800780A
:1041E0000D2800D100E0CCE700BF012240F227718A
:1041F0003548FEF76AFC3248006804F0ADFC84B232
:1042000022462F4801682D4802F0AFFA3A4800686C
:1042100004F0A2FC84B2224637480168274802F025
:10422000A4FA012240F227712748FEF74EFC6AE00B
:10423000012240F227712448FEF747FC234802F090
:1042400064FA28BB214802F067FA21490870084641
:104250000078392819DC08460078302815DB084634
:1042600001781048254A126881541948017813488A
:1042700002F03BFA21480068401C204908600122F6
:1042800040F227711048FEF720FC1148007837E013
:1042900039E00000C8000020EC0000207801002078
:1042A000F800002082010020F4000020CC00002053
:1042B000D0000020256400008C0100209003002025
:1042C0003C000020500000200048004092040020E4
:1042D000400000203400002054000020580000203E
:1042E0005C000020600000206400002068000020C6
:1042F0006C000020E400002070000020F00000208E
:104300000D2800D100E093E700BF012240F22771A1
:10431000FE48FEF7DAFBFE48006804F01DFC84B29C
:104320002246FB480168FB4802F01FFAFA48006881
:1043300004F012FC84B22246F7480168F54802F006
:1043400014FA012240F22771F048FEF7BEFB00206C
:10435000F249086059E0F24804F0FEFBEF490968B1
:10436000401A401EEF4908600846006806F0C1FD8B
:1043700041EC100BB0EE40DAF0EE60DAB0EE4D1A20
:10438000F0EE6D1A9FEDE80B05F032FCB0EE40BA8E
:10439000F0EE60BAE249E14A1268895CA1F13000AE
:1043A00006F0A7FD41EC100BB0EE40CAF0EE60CA7B
:1043B00053EC1B2B51EC1C0B06F0EEFD41EC100BEB
:1043C000B0EE409AF0EE609AD948006806F091FD90
:1043D00041EC100BB0EE40AAF0EE60AA53EC192BA2
:1043E00051EC1A0B06F042FB41EC100BB0EE408A88
:1043F000F0EE608A51EC180B06F04CFDCC490860D9
:10440000C6480068401CC5490860C54804F0A4FBC4
:10441000C249096888429ED80020C649086059E010
:10442000C54804F099FBC3490968401A401EC349B6
:1044300008600846006806F05CFD41EC100BB0EE29
:1044400040DAF0EE60DAB0EE4D1AF0EE6D1A9FED44
:10445000B60B05F0CDFBB0EE40BAF0EE60BAB6494F
:10446000B44A1268895CA1F1300006F042FD41ECCB
:10447000100BB0EE40CAF0EE60CA53EC1B2B51ECAF
:104480001C0B06F089FD41EC100BB0EE409AF0EEEB
:10449000609AAB48006806F02CFD41EC100BB0EEC2
:1044A00040AAF0EE60AA53EC192B51EC1A0B06F05F
:1044B000DDFA41EC100BB0EE408AF0EE608A51EC70
:1044C000180B06F0E7FC9E4908609A480068401CFB
:1044D00098490860984804F03FFB9649096888426B
:1044E0009ED89348006896490968401A9549086023
:1044F0000846AFF240210268934804F0A9FA9248B6
:1045000004F02AFB84B222468F49824802F02DF93A
:104510007F48006804F020FB84B222467C48016892
:104520007C4802F022F98948006804F015FB84B247
:10453000224686480168774802F017F9012240F2C6
:1045400027717248FEF7C1FA81E0814802F0DDF878
:10455000002876D17E4802F0DFF87E4908700846D0
:1045600000781B286DD14FF6FF7003F067F87A488A
:104570000168002003F0B3F86548006804F0ECFA25
:1045800084B2224662480168624802F0EEF873483D
:10459000006804F0E1FA84B22246704801685D4880
:1045A00002F0E3F86E48006804F0D6FA84B22246BE
:1045B0006B480168574802F0D8F86A48006804F070
:1045C000CBFA84B2224667480168524802F0CDF81F
:1045D0006548006804F0C0FA84B222466248016867
:1045E0004C4802F0C2F86148006804F0B5FA84B2A1
:1045F00022465E480168474802F0B7F85C48006808
:1046000004F0AAFA84B2224659480168414802F0EF
:10461000ACF84E48006804F09FFA84B222464B483A
:1046200001683C4802F0A1F83948006804F094FAA7
:1046300084B2224636480168364802F096F807E010
:10464000FFE7012240F227713048FEF73EFA7CE78F
:1046500000BFBDEC0C8B10BD10B52DED0C8BFFF722
:10466000CEF92B48006804F077FA84B22246284835
:104670000168284802F079F83B48006804F06CFAB9
:1046800084B2224638480168224802F06EF8394860
:10469000006804F061FA84B22246364801681D4879
:1046A00002F063F8012240F227711848FEF70DFA74
:1046B0006CE0012240F227711448FEF706FA244804
:1046C00002F023F800BB224802F026F821490870C6
:1046D00008460078392854DC08460078302850DB3A
:1046E000084600780E49244A12688854194801780F
:1046F000084801F0FAFF20480068401C1E49086085
:10470000012240F2277139E040E0000000480040FB
:104710003C0000209003002074000020EC000020EA
:1047200078010020E8000020000000000000244084
:10473000C8000020F800002082010020F4000020C2
:10474000CC000020D4000020BE010020500000203A
:10475000920400204000002034000020540000207B
:10476000580000205C000020600000206400002051
:10477000680000206C000020E4000020FE48FEF7E6
:10478000A4F9FE4800780D2800D100E091E700BFB1
:10479000012240F22771F848FEF797F9F8480068BF
:1047A00004F0DAF984B22246F5480168F54801F0D0
:1047B000DCFFF548006804F0CFF984B22246F248E5
:1047C0000168F04801F0D1FF012240F22771EA4868
:1047D000FEF77BF931E0012240F22771E648FEF74F
:1047E00074F9EA4801F091FF38BBE84801F094FF02
:1047F000E249087008460078392819DC0846007834
:10480000302815DB08460178E148E24A12688154F5
:10481000DA480178DB4801F068FFDE480068401C98
:10482000DC490860012240F22771D348FEF74DF9B8
:10483000D24800780D2800D100E0CCE700BF01226B
:1048400040F22771CC48FEF740F9CD48006804F0EB
:1048500083F984B22246CA480168CA4801F085FF3C
:10486000CD48006804F078F984B22246CA4801684D
:10487000C44801F07AFF012240F22771BE48FEF7DA
:1048800024F90020C549086059E0C54804F064F9DE
:10489000C2490968401A401EC249086008460068BB
:1048A00006F027FB41EC100BB0EE40DAF0EE60DAD8
:1048B000B0EE4D1AF0EE6D1A1FED650B05F098F98C
:1048C000B0EE40BAF0EE60BAB549B44A1268895CFD
:1048D000A1F1300006F00DFB41EC100BB0EE40CA28
:1048E000F0EE60CA53EC1B2B51EC1C0B06F054FB92
:1048F00041EC100BB0EE409AF0EE609AAA480068C6
:1049000006F0F7FA41EC100BB0EE40AAF0EE60AA08
:1049100053EC192B51EC1A0B06F0A8F841EC100BD4
:10492000B0EE408AF0EE608A51EC180B06F0B2FA55
:104930009D49086099480068401C9849086098485B
:1049400004F00AF99549096888429ED800209749E1
:10495000086059E08E4804F0FFF894490968401A4D
:10496000401E934908600846006806F0C2FA41EC10
:10497000100BB0EE40DAF0EE60DAB0EE4D1AF0EE69
:104980006D1A1FED970B05F033F9B0EE40BAF0EE5B
:1049900060BA7F49854A1268895CA1F1300006F04F
:1049A000A8FA41EC100BB0EE40CAF0EE60CA53EC2E
:1049B0001B2B51EC1C0B06F0EFFA41EC100BB0EE88
:1049C000409AF0EE609A7B48006806F092FA41EC5B
:1049D000100BB0EE40AAF0EE60AA53EC192B51EC8C
:1049E0001A0B06F043F841EC100BB0EE408AF0EEE3
:1049F000608A51EC180B06F04DFA6E4908606B485E
:104A00000068401C69490860614804F0A5F86749DE
:104A1000096888429ED86448006866490968484326
:104A2000654908600846AFF274710268634804F093
:104A30000FF8624804F090F884B222465F4951486A
:104A400001F093FE4E48006804F086F884B22246D6
:104A50004B4801684B4801F088FE5948006804F053
:104A60007BF884B2224656480168464801F07DFE34
:104A7000012240F227714048FEF727F8B6E043488C
:104A800001F043FE002875D1404801F045FE3B4946
:104A90000870084600781B286CD14FF6FF7002F0B2
:104AA000CDFD48480168002002F019FE3448006836
:104AB00004F052F884B2224631480168314801F0CE
:104AC00054FE4148006804F047F884B222463E484C
:104AD00001682C4801F049FE3C48006804F03CF8AD
:104AE00084B2224639480168264801F03EFE384823
:104AF000006804F031F884B2224635480168214844
:104B000001F033FE3348006804F026F884B22246F0
:104B1000304801681B4801F028FE2F48006804F067
:104B20001BF884B222462C480168164801F01DFE8D
:104B30002A48006804F010F884B222462748016829
:104B4000104801F012FE1E48006804F005F884B217
:104B500022461B4801680B4801F007FE0848006820
:104B600003F0FAFF84B2224605480168054801F0C7
:104B7000FCFD3CE034E00000004800404000002024
:104B80003C000020900300207000002092040020D0
:104B900082010020F000002074000020EC000020C2
:104BA00078010020E8000020C8000020F800002064
:104BB000F4000020CC000020D8000020F0010020EC
:104BC0005000002034000020540000205800002035
:104BD0005C000020600000206400002068000020CD
:104BE000012240F22771FE48FDF76FFF47E700BF43
:104BF000BDEC0C8B10BD10B52DED0C8BFEF7FFFE40
:104C0000F848006803F0A8FF84B22246F54801681E
:104C1000F54801F0AAFDF548006803F09DFF84B255
:104C20002246F2480168F04801F09FFDF048006814
:104C300003F092FF84B22246ED480168EA4801F091
:104C400094FD012240F22771E548FDF73EFF31E077
:104C5000012240F22771E248FDF737FFE54801F0F5
:104C600054FD38BBE34801F057FDE349087008469E
:104C70000078392819DC08460078302815DB08460A
:104C80000078DE49DE4A12688854DB480178D6484D
:104C900001F02BFDDA480068401CD9490860012268
:104CA00040F22771CE48FDF710FFD34800780D2859
:104CB00000D100E0CCE700BF012240F22771C848D4
:104CC000FDF703FFC748006803F046FF84B22246A1
:104CD000C4480168C44801F048FDCA48006803F0B0
:104CE0003BFF84B22246C7480168BF4801F03DFD42
:104CF000012240F22771BA48FDF7E7FE31E00122B8
:104D000040F22771B648FDF7E0FEBA4801F0FDFC1D
:104D100038BBB84801F000FDB74908700846007874
:104D2000392819DC08460078302815DB0846017858
:104D3000B548B64A12688154AF480178AA4801F0D4
:104D4000D4FCB2480068401CB0490860012240F21F
:104D50002771A348FDF7B9FEA74800780D2800D1B8
:104D600000E0CCE700BF012240F227719C48FDF72C
:104D7000ACFE9C48006803F0EFFE84B222469948DE
:104D80000168994801F0F1FCA148006803F0E4FED5
:104D900084B222469E480168934801F0E6FC012255
:104DA00040F227718E48FDF790FE00209949086077
:104DB00059E0924803F0D0FE96490968401A401E17
:104DC000954908600846006806F093F841EC100B1E
:104DD000B0EE40DAF0EE60DAB0EE4D1AF0EE6D1A99
:104DE0009FED8E0B04F004FFB0EE40BAF0EE60BA17
:104DF0008249884A1268895CA1F1300006F079F88E
:104E000041EC100BB0EE40CAF0EE60CA53EC1B2B25
:104E100051EC1C0B06F0C0F841EC100BB0EE409AC0
:104E2000F0EE609A7F48006806F063F841EC100BE2
:104E3000B0EE40AAF0EE60AA53EC192B51EC1A0B1D
:104E400005F014FE41EC100BB0EE408AF0EE608AE3
:104E500051EC180B06F01EF8724908606D480068A6
:104E6000401C6C490860654803F076FE6949096892
:104E700088429ED800206C49086059E0624803F0DF
:104E80006BFE69490968401A401E68490860084677
:104E9000006806F02EF841EC100BB0EE40DAF0EEB0
:104EA00060DAB0EE4D1AF0EE6D1A9FED5C0B04F077
:104EB0009FFEB0EE40BAF0EE60BA53495A4A12680B
:104EC000895CA1F1300006F014F841EC100BB0EE53
:104ED00040CAF0EE60CA53EC1B2B51EC1C0B06F0E1
:104EE0005BF841EC100BB0EE409AF0EE609A50483F
:104EF000006805F0FEFF41EC100BB0EE40AAF0EEAA
:104F000060AA53EC192B51EC1A0B05F0AFFD41ECE4
:104F1000100BB0EE408AF0EE608A51EC180B05F0F1
:104F2000B9FF4349086040480068401C3E4908609A
:104F3000354803F011FE3C49096888429ED839483B
:104F400000683B49096890FBF1F03A49086008465F
:104F5000AFF6A0410268384803F07AFD364803F006
:104F6000FBFD84B2224634491F4801F0FEFB1D4878
:104F7000006803F0F1FD84B222461A4801681A481D
:104F800001F0F3FB2D48006803F0E6FD84B22246F1
:104F90002A480168144801F0E8FB012240F2277119
:104FA0000F48FDF792FDB5E0124801F0AEFB002876
:104FB0007ED1104801F0B0FB0F4908700846007818
:104FC0001B2875D14FF6FF7002F038FB1C480168B2
:104FD000002002F084FB0348006803F0BDFD31E0CF
:104FE000004800403C0000209003002064000020A6
:104FF0006C00002092040020400000207801002076
:10500000E40000207000002082010020F000002059
:1050100074000020EC000020E800002000000000E8
:1050200000002440C8000020F8000020F400002008
:10503000CC000020DC0000202202002050000020D4
:105040003400002084B22246FE480168FE4801F088
:105050008CFBFE48006803F07FFD84B22246FB48CB
:105060000168F94801F081FBF948006803F074FD1C
:1050700084B22246F6480168F34801F076FBF54811
:10508000006803F069FD84B22246F2480168EE48E8
:1050900001F06BFBF048006803F05EFD84B222462D
:1050A000ED480168E84801F060FBEC48006800E06A
:1050B0002AE003F051FD84B22246E8480168E24844
:1050C00001F053FBE648006803F046FD84B2224637
:1050D000E3480168DC4801F048FBE248006803F05F
:1050E0003BFD84B22246DF480168D74801F03DFB12
:1050F000D448006803F030FD84B22246D1480168EC
:10510000D14801F032FB06E0012240F22771D64877
:10511000FDF7DBFC48E700BFBDEC0C8B10BD10B504
:105120002DED0C8BFEF76BFCC648006803F014FDF8
:1051300084B22246C3480168C34801F016FBC84840
:10514000006803F009FD84B22246C5480168BE48E4
:1051500001F00BFBC548006803F0FEFC84B2224658
:10516000C2480168B84801F000FB012240F22771F3
:10517000BD48FDF7AAFC31E0012240F22771BA4890
:10518000FDF7A3FCBA4801F0C0FA38BBB84801F0FB
:10519000C3FAB849087008460078392819DC08466F
:1051A0000078302815DB08460178B348B34A126806
:1051B0008154B0480178A44801F097FAAF480068DC
:1051C000401CAE490860012240F22771A648FDF755
:1051D0007CFCA84800780D2800D100E0CCE700BF97
:1051E000012240F22771A048FDF76FFC9548006846
:1051F00003F0B2FC84B2224692480168924801F062
:10520000B4FA9F48006803F0A7FC84B222469C4889
:1052100001688D4801F0A9FA012240F227719248F5
:10522000FDF753FC31E0012240F227718E48FDF773
:105230004CFC8F4801F069FA38BB8D4801F06CFADC
:105240008C49087008460078392819DC084600782F
:10525000302815DB084600788A498B4A1268885442
:1052600084480178784801F040FA87480068401C7B
:1052700085490860012240F227717B48FDF725FC33
:105280007C4800780D2800D100E0CCE700BF012267
:1052900040F227717448FDF718FC6A48006803F073
:1052A0005BFC84B2224667480168674801F05DFAFA
:1052B0007648006803F050FC84B2224673480168C7
:1052C000614801F052FA012240F227716648FDF769
:1052D000FCFB00206E49086059E0674803F03CFC85
:1052E0006B490968401A401E6A4908600846006810
:1052F00005F0FFFD41EC100BB0EE40DAF0EE60DAA5
:10530000B0EE4D1AF0EE6D1A1FEDBC0B04F070FC00
:10531000B0EE40BAF0EE60BA57495D4A1268895C57
:10532000A1F1300005F0E5FD41EC100BB0EE40CAF4
:10533000F0EE60CA53EC1B2B51EC1C0B05F02CFE5D
:1053400041EC100BB0EE409AF0EE609A52480068C3
:1053500005F0CFFD41EC100BB0EE40AAF0EE60AAD4
:1053600053EC192B51EC1A0B05F080FB41EC100BA0
:10537000B0EE408AF0EE608A51EC180B05F08AFD21
:105380004549086042480068401C414908603A4865
:1053900003F0E2FB3E49096888429ED800203F495D
:1053A00008608CE0374803F0D7FB3C490968401A95
:1053B000401E3B4908600846006805F09AFD41EC34
:1053C000100BB0EE40DAF0EE60DAB0EE4D1AF0EE0F
:1053D0006D1A1FEDEE0B04F00BFCB0EE40BAF0EED0
:1053E00060BA28492D4A1268895CA1F1300005F0A5
:1053F00080FD41EC100BB0EE40CAF0EE60CA53ECF9
:105400001B2B51EC1C0B05F0C7FD41EC100BB0EE53
:10541000409AF0EE609A2348006805F06AFD41EC7E
:10542000100BB0EE40AAF0EE60AA53EC192B51EC31
:105430001A0B05F01BFB41EC100BB0EE408AF0EEAE
:10544000608A31E03C0000209003002054000020DE
:10545000580000205C000020600000206400002054
:105460006800002050000020004800406C00002030
:10547000920400204000002078010020E400002079
:105480007000002082010020F00000207400002045
:10549000EC000020E8000020C8000020F8000020F8
:1054A000F4000020CC00002051EC180B05F0F2FCB9
:1054B000FE490860FE480068401CFD490860FD4840
:1054C00003F04AFBFA49096888423FF66BAFFA4895
:1054D00090ED000AF8EEC00AF44890ED000AB8EE2C
:1054E000C00A80EE801AF54880ED001A006806F0C8
:1054F00049F841EC100BB0EE408AF0EE608A53ECB4
:10550000182BEFA1EF4803F0A3FAEE4803F024FBB9
:1055100084B22246EB49EC4801F027F9EB480068D9
:1055200003F01AFB84B22246E8480168E64801F01D
:105530001CF9E748006803F00FFB84B22246E448F8
:105540000168E14801F011F9012240F22771E148B8
:10555000FDF7BBFA81E0E04801F0D7F8002876D1EA
:10556000DD4801F0D9F8DD490870084600781B28AD
:105570006DD14FF6FF7002F061F8D9480168002044
:1055800002F0ADF8D148006803F0E6FA84B2224692
:10559000CE480168CC4801F0E8F8D248006803F032
:1055A000DBFA84B22246CF480168C74801F0DDF833
:1055B000CD48006803F0D0FA84B22246CA48016898
:1055C000C14801F0D2F8C948006803F0C5FA84B2B6
:1055D0002246C6480168BC4801F0C7F8C4480068C4
:1055E00003F0BAFA84B22246C1480168B64801F015
:1055F000BCF8C048006803F0AFFA84B22246BD4848
:105600000168B14801F0B1F8BB48006803F0A4FAA2
:1056100084B22246B8480168AB4801F0A6F8AC480D
:10562000006803F099FA84B22246A9480168A648A6
:1056300001F09BF8A548006803F08EFA84B2224678
:10564000A2480168A04801F090F807E0FFE70122B6
:1056500040F227719F48FDF738FA7CE700BFBDECA8
:105660000C8B10BD10B59948006803F075FA84B230
:10567000224696480168944801F077F899480068F6
:1056800003F06AFA84B22246964801688E4801F017
:105690006CF89548006803F05FFA84B2224692489D
:1056A0000168894801F061F89048006803F054FAF5
:1056B00084B222468D480168834801F056F88C4830
:1056C000006803F049FA84B22246894801687E489E
:1056D00001F04BF88748006803F03EFA84B2224696
:1056E00084480168784801F040F88348006803F076
:1056F00033FA84B2224680480168734801F035F8D5
:105700007348006803F028FA84B2224670480168A2
:105710006D4801F02AF8012240F227716D48FDF72B
:10572000D4F958E06C4800F0F0FF00284DD16A48E9
:1057300000F0F2FF69490870084600781B282AD15A
:105740004FF6FF7001F07AFF65480168002001F014
:10575000C6FF5E48006803F0FFF984B222465B484A
:105760000168594801F001F86448006803F0F4F951
:1057700084B2224661480168534800F0F6FF53485E
:10578000006803F0E9F984B22246504801684E48A7
:1057900000F0EBFF20E0514800786138052813D273
:1057A000DFE800F00306090C0F00FEF711FA0BE02A
:1057B000FEF7BAFC08E0FEF74FFF05E0FFF71BFA23
:1057C00002E0FFF7ACFC00BF00BF012240F22771EE
:1057D0004048FDF77AF9A5E700BF10BD10B50121DB
:1057E0000820FCF768FC4FF4704045490860012030
:1057F0000871002048718871C8714248FBF776FE35
:1058000010BD10B501210846FCF755FC01203E49AA
:10581000086000200871487188710220C8713B48F7
:10582000FBF764FE10BD10B501213848FBF7C0FE40
:1058300010BD10B5002410E04FF470413148FBF763
:10584000D1FE642001F03DF84FF470412D48FBF784
:10585000CBFE642001F035F8641C042CECDB10BD99
:1058600010B51A48006803F077F984B22246174849
:105870000168154800F079FF2548006803F06CF9CD
:1058800084B22246224801680F4800F06EFF21488A
:10589000006803F061F984B222461E4801680A4894
:1058A00000F063FF1C48006838E00000CC000020D6
:1058B000F800002082010020C8000020E000002045
:1058C0002566000054020020900300203C000020C8
:1058D00050000020004800409204002040000020BA
:1058E0003400002054000020580000205C000020FC
:1058F0006000002064000020680000202C000020D0
:1059000004010020000C02400C01002000000240B5
:10591000780000207C0000208400002003F01CF9A7
:1059200084B22246FE480168FE4800F01EFFFE4891
:10593000006803F011F984B22246FB480168F94877
:1059400000F013FF012240F22771F848FDF7BDF87F
:1059500074E0012240F22771F448FDF7B6F8F448EC
:1059600000F0D3FE002869D1F14800F0D5FEF149DE
:105970000870084600781B282AD14FF6FF7001F006
:105980005DFEED480168002001F0A9FEEB480068CB
:1059900003F0E2F884B22246E8480168E14800F0EA
:1059A000E4FEE748006803F0D7F884B22246E448F2
:1059B0000168DC4800F0D9FEE048006803F0CCF84C
:1059C00084B22246DD480168D64800F0CEFE36E0BB
:1059D000D8480078612802D062282ED116E0D94834
:1059E000006803F0B9F884B22246D6480168CD4871
:1059F00000F0BBFE4FF40051D348FBF7F3FD01224A
:105A000040F22771C948FDF760F816E0CF480068FA
:105A100003F0A2F884B22246CC480168C14800F0E5
:105A2000A4FE4FF40051C848FBF7DEFD012240F20E
:105A30002771BE48FDF749F800BF00BF89E700BFE6
:105A4000012240F22771B948FDF73FF810BD10B5AB
:105A50000020BF490870012240F22771B348FDF7CA
:105A600034F8B648006803F077F884B22246B348A9
:105A70000168AC4800F079FEB648006803F06CF8A5
:105A800084B22246B3480168A64800F06EFEA648DC
:105A9000006803F061F884B22246A3480168A14877
:105AA00000F063FE012240F22771A048FDF70DF8D7
:105AB000FFF794FEFFF7A5FE4FF47041A248FBF7F5
:105AC00093FDFFF7B6FEA448A14A127830F81210F1
:105AD0009D48FBF787FD9AE0FFF7A5FE9F490870F8
